{
    "contractName": "Ballot",
    "abi": [
        {
            "inputs": [],
            "stateMutability": "nonpayable",
            "type": "constructor"
        },
        {
            "anonymous": false,
            "inputs": [
                {
                    "indexed": false,
                    "internalType": "uint256",
                    "name": "finalResult",
                    "type": "uint256"
                }
            ],
            "name": "voteEnded",
            "type": "event"
        },
        {
            "anonymous": false,
            "inputs": [],
            "name": "voteStarted",
            "type": "event"
        },
        {
            "anonymous": false,
            "inputs": [
                {
                    "indexed": true,
                    "internalType": "uint256",
                    "name": "_candidateId",
                    "type": "uint256"
                }
            ],
            "name": "votedEvent",
            "type": "event"
        },
        {
            "anonymous": false,
            "inputs": [
                {
                    "indexed": false,
                    "internalType": "string",
                    "name": "voterName",
                    "type": "string"
                }
            ],
            "name": "voterAdded",
            "type": "event"
        },
        {
            "inputs": [],
            "name": "GetWinner",
            "outputs": [
                {
                    "internalType": "string",
                    "name": "",
                    "type": "string"
                }
            ],
            "stateMutability": "view",
            "type": "function"
        },
        {
            "inputs": [
                {
                    "internalType": "string",
                    "name": "_name",
                    "type": "string"
                },
                {
                    "internalType": "uint256",
                    "name": "adhar_num",
                    "type": "uint256"
                }
            ],
            "name": "addVoter",
            "outputs": [],
            "stateMutability": "nonpayable",
            "type": "function"
        },
        {
            "inputs": [
                {
                    "internalType": "uint256",
                    "name": "",
                    "type": "uint256"
                }
            ],
            "name": "candidates",
            "outputs": [
                {
                    "internalType": "uint256",
                    "name": "id",
                    "type": "uint256"
                },
                {
                    "internalType": "string",
                    "name": "name",
                    "type": "string"
                },
                {
                    "internalType": "string",
                    "name": "party",
                    "type": "string"
                },
                {
                    "internalType": "uint256",
                    "name": "voteCount",
                    "type": "uint256"
                }
            ],
            "stateMutability": "view",
            "type": "function"
        },
        {
            "inputs": [],
            "name": "candidatesCount",
            "outputs": [
                {
                    "internalType": "uint256",
                    "name": "",
                    "type": "uint256"
                }
            ],
            "stateMutability": "view",
            "type": "function"
        },
        {
            "inputs": [],
            "name": "endVote",
            "outputs": [],
            "stateMutability": "nonpayable",
            "type": "function"
        },
        {
            "inputs": [],
            "name": "finalResult",
            "outputs": [
                {
                    "internalType": "uint256",
                    "name": "",
                    "type": "uint256"
                }
            ],
            "stateMutability": "view",
            "type": "function"
        },
        {
            "inputs": [],
            "name": "owner",
            "outputs": [
                {
                    "internalType": "address",
                    "name": "",
                    "type": "address"
                }
            ],
            "stateMutability": "view",
            "type": "function"
        },
        {
            "inputs": [],
            "name": "startVote",
            "outputs": [],
            "stateMutability": "nonpayable",
            "type": "function"
        },
        {
            "inputs": [],
            "name": "state",
            "outputs": [
                {
                    "internalType": "enum Ballot.State",
                    "name": "",
                    "type": "uint8"
                }
            ],
            "stateMutability": "view",
            "type": "function"
        },
        {
            "inputs": [
                {
                    "internalType": "uint256",
                    "name": "_candidateId",
                    "type": "uint256"
                },
                {
                    "internalType": "uint256",
                    "name": "adhar_num",
                    "type": "uint256"
                }
            ],
            "name": "vote",
            "outputs": [],
            "stateMutability": "nonpayable",
            "type": "function"
        },
        {
            "inputs": [
                {
                    "internalType": "uint8",
                    "name": "",
                    "type": "uint8"
                }
            ],
            "name": "voters",
            "outputs": [
                {
                    "internalType": "bool",
                    "name": "",
                    "type": "bool"
                }
            ],
            "stateMutability": "view",
            "type": "function"
        },
        {
            "inputs": [],
            "name": "voters_Count",
            "outputs": [
                {
                    "internalType": "uint8",
                    "name": "",
                    "type": "uint8"
                }
            ],
            "stateMutability": "view",
            "type": "function"
        }
    ],
    "bytecode": "6080604052600060055560006006553480156200001b57600080fd5b50600780546001600160a01b0319163317905560408051808201825260058152644d6f64646960d81b6020808301919091528251808401909352601683527f426861726174697961204a616e61746120506172747900000000000000000000908301526200008991620002c0565b620000ed6040518060400160405280600581526020016414985a1d5b60da1b8152506040518060400160405280601881526020017f496e6469616e204e6174696f6e616c20436f6e67726573730000000000000000815250620002c060201b60201c565b620001396040518060400160405280600681526020016552414a494e4960d01b815250604051806040016040528060048152602001634241424160e01b815250620002c060201b60201c565b620001886040518060400160405280600a8152602001695448414c41504154485960b01b81525060405180604001604052806003815260200162444d4b60e81b815250620002c060201b60201c565b620001d16040518060400160405280600381526020016245505360e81b8152506040518060400160405280600481526020016341444d4b60e01b815250620002c060201b60201c565b62000228604051806040016040528060048152602001634e4f544160e01b815250604051806040016040528060118152602001704e6f6e65206f66207468652061626f766560781b815250620002c060201b60201c565b6040805180820190915260058152644a6565766160d81b602082015262000254906308123a8262000349565b60408051808201909152600581526430b9353ab760d91b602082015262000280906320932e5462000349565b6040805180820190915260068152653b30b936b0b760d11b6020820152620002ad906324c009ad62000349565b6007805460ff60a01b191690556200055c565b6003805460019081019182905560408051608081018252838152602080820187815282840187905260006060840181905295865284825292909420815181559151805191949293620003199390850192910190620004c0565b506040820151805162000337916002840191602090910190620004c0565b50606082015181600301559050505050565b600080600754600160a01b900460ff1660028111156200036557fe5b146200037057600080fd5b6007546001600160a01b031633146200038857600080fd5b6004805460ff8082166001908101821660ff1993841617938490556040805160808101825294831680865260208087018a81528784018a9052606088018590526000928352600282529290912086518154951694909516939093178455518051620003fc93928501929190910190620004c0565b5060408281015160028301556060909201516003909101805460ff19169115159190911790558051602080825285518183015285517f7ce454ab76bb078843b59ff6af7bc3be35578af170a7f72326a855bdfe2a149d938793928392918301919085019080838360005b838110156200048057818101518382015260200162000466565b50505050905090810190601f168015620004ae5780820380516001836020036101000a031916815260200191505b509250505060405180910390a1505050565b828054600181600116156101000203166002900490600052602060002090601f016020900481019282601f106200050357805160ff191683800117855562000533565b8280016001018555821562000533579182015b828111156200053357825182559160200191906001019062000516565b506200054192915062000545565b5090565b5b8082111562000541576000815560010162000546565b610a27806200056c6000396000f3fe608060405234801561001057600080fd5b50600436106100b45760003560e01c8063b922394611610071578063b9223946146102aa578063c19d93fb146102b2578063c692eb6f146102db578063d2abaa58146102f9578063e1859591146103a1578063f3a8286f146103d5576100b4565b80632d35a8a2146100b95780633477ee2e146100d35780634c0a6af0146101dc5780638da5cb5b146101e65780639f6c4e6c1461020a578063b384abef14610287575b600080fd5b6100c16103dd565b60408051918252519081900360200190f35b6100f0600480360360208110156100e957600080fd5b50356103e3565b604051808581526020018060200180602001848152602001838103835286818151815260200191508051906020019080838360005b8381101561013d578181015183820152602001610125565b50505050905090810190601f16801561016a5780820380516001836020036101000a031916815260200191505b50838103825285518152855160209182019187019080838360005b8381101561019d578181015183820152602001610185565b50505050905090810190601f1680156101ca5780820380516001836020036101000a031916815260200191505b50965050505050505060405180910390f35b6101e4610521565b005b6101ee61055f565b604080516001600160a01b039092168252519081900360200190f35b61021261056e565b6040805160208082528351818301528351919283929083019185019080838360005b8381101561024c578181015183820152602001610234565b50505050905090810190601f1680156102795780820380516001836020036101000a031916815260200191505b509250505060405180910390f35b6101e46004803603604081101561029d57600080fd5b50803590602001356105a7565b6101e4610674565b6102ba6106e9565b604051808260028111156102ca57fe5b815260200191505060405180910390f35b6102e36106f9565b6040805160ff9092168252519081900360200190f35b6101e46004803603604081101561030f57600080fd5b81019060208101813564010000000081111561032a57600080fd5b82018360208201111561033c57600080fd5b8035906020019184600183028401116401000000008311171561035e57600080fd5b91908080601f0160208091040260200160405190810160405280939291908181526020018383808284376000920191909152509295505091359250610702915050565b6103c1600480360360208110156103b757600080fd5b503560ff16610871565b604080519115158252519081900360200190f35b6100c1610886565b60035481565b600160208181526000928352604092839020805481840180548651600296821615610100026000190190911695909504601f8101859004850286018501909652858552909491939290919083018282801561047f5780601f106104545761010080835404028352916020019161047f565b820191906000526020600020905b81548152906001019060200180831161046257829003601f168201915b50505060028085018054604080516020601f60001961010060018716150201909416959095049283018590048502810185019091528181529596959450909250908301828280156105115780601f106104e657610100808354040283529160200191610511565b820191906000526020600020905b8154815290600101906020018083116104f457829003601f168201915b5050505050908060030154905084565b6007805460ff60a01b1916600160a01b1790556040517fd0dc01800a369fef30d3fced5275b8b916549867622e79efca5245c479fda4ea90600090a1565b6007546001600160a01b031681565b6060600280600754600160a01b900460ff16600281111561058b57fe5b1461059557600080fd5b606061059f61088c565b9250505b5090565b600180600754600160a01b900460ff1660028111156105c257fe5b146105cc57600080fd5b60045460ff90811660009081526020819052604090205416156105ee57600080fd5b60008311801561060057506003548311155b61060957600080fd5b60045460ff16600090815260208181526040808320805460ff1916600190811790915560058054820190558684529182905280832060030180549092019091555184917ffff3c900d938d21d0990d786e819f29b8d05c1ef587b462b939609625b684b1691a2505050565b600180600754600160a01b900460ff16600281111561068f57fe5b1461069957600080fd5b6007805460ff60a01b1916600160a11b179055600554600681905560408051918252517fb43a401dcdbe02a8afa41feb6c651425997908d1a4b79cf505188ba1dd3fd8729181900360200190a150565b600754600160a01b900460ff1681565b60045460ff1681565b600080600754600160a01b900460ff16600281111561071d57fe5b1461072757600080fd5b6007546001600160a01b0316331461073e57600080fd5b6004805460ff8082166001908101821660ff1993841617938490556040805160808101825294831680865260208087018a81528784018a90526060880185905260009283526002825292909120865181549516949095169390931784555180516107b093928501929190910190610967565b5060408281015160028301556060909201516003909101805460ff19169115159190911790558051602080825285518183015285517f7ce454ab76bb078843b59ff6af7bc3be35578af170a7f72326a855bdfe2a149d938793928392918301919085019080838360005b8381101561083257818101518382015260200161081a565b50505050905090810190601f16801561085f5780820380516001836020036101000a031916815260200191505b509250505060405180910390a1505050565b60006020819052908152604090205460ff1681565b60065481565b606060008160015b6003548111610960576000818152600160205260409020600301548310156109585760008181526001602081815260409283902060038101546002918201805486519581161561010002600019011692909204601f810184900484028501840190955284845296509192908301828280156109505780601f1061092557610100808354040283529160200191610950565b820191906000526020600020905b81548152906001019060200180831161093357829003601f168201915b505050505091505b600101610894565b5091505090565b828054600181600116156101000203166002900490600052602060002090601f016020900481019282601f106109a857805160ff19168380011785556109d5565b828001600101855582156109d5579182015b828111156109d55782518255916020019190600101906109ba565b506105a39291505b808211156105a357600081556001016109dd56fea26469706673582212209efd09a6470e68a2a80546daf71ff07c23f0ac764f936bc6bf0431b007fac36564736f6c63430007010033",
    "sourcePath": "c:/src/we_vote/Voting.sol",
    "compiler": {
        "name": "solc",
        "version": "0.7.1+commit.f4a555be"
    },
    "functionHashes": {
        "GetWinner()": "9f6c4e6c",
        "addVoter(string,uint256)": "d2abaa58",
        "candidates(uint256)": "3477ee2e",
        "candidatesCount()": "2d35a8a2",
        "endVote()": "b9223946",
        "finalResult()": "f3a8286f",
        "owner()": "8da5cb5b",
        "startVote()": "4c0a6af0",
        "state()": "c19d93fb",
        "vote(uint256,uint256)": "b384abef",
        "voters(uint8)": "e1859591",
        "voters_Count()": "c692eb6f"
    },
    "gasEstimates": {
        "creation": {
            "codeDepositCost": "519800",
            "executionCost": "infinite",
            "totalCost": "infinite"
        },
        "external": {
            "GetWinner()": "infinite",
            "addVoter(string,uint256)": "infinite",
            "candidates(uint256)": "infinite",
            "candidatesCount()": "999",
            "endVote()": "43726",
            "finalResult()": "1108",
            "owner()": "1104",
            "startVote()": "21793",
            "state()": "1076",
            "vote(uint256,uint256)": "68319",
            "voters(uint8)": "1215",
            "voters_Count()": "1057"
        },
        "internal": {
            "addCandidate(string memory,string memory)": "infinite",
            "declarewinner()": "infinite"
        }
    }
}